{
  "_format": "hh-sol-artifact-1",
  "contractName": "Stampfy",
  "sourceName": "contracts/Stampfy.sol",
  "abi": [
    {
      "inputs": [],
      "name": "getAllCredentials",
      "outputs": [
        {
          "components": [
            {
              "internalType": "string",
              "name": "hash",
              "type": "string"
            },
            {
              "internalType": "string",
              "name": "credType",
              "type": "string"
            },
            {
              "internalType": "string",
              "name": "ownerDID",
              "type": "string"
            },
            {
              "internalType": "string",
              "name": "issuerDID",
              "type": "string"
            },
            {
              "internalType": "uint256",
              "name": "timestamp",
              "type": "uint256"
            },
            {
              "internalType": "address",
              "name": "issuer",
              "type": "address"
            }
          ],
          "internalType": "struct Stampfy.Credential[]",
          "name": "",
          "type": "tuple[]"
        }
      ],
      "stateMutability": "view",
      "type": "function"
    },
    {
      "inputs": [
        {
          "internalType": "string",
          "name": "hash",
          "type": "string"
        },
        {
          "internalType": "string",
          "name": "credType",
          "type": "string"
        },
        {
          "internalType": "string",
          "name": "ownerDID",
          "type": "string"
        },
        {
          "internalType": "string",
          "name": "issuerDID",
          "type": "string"
        }
      ],
      "name": "registerCredential",
      "outputs": [],
      "stateMutability": "nonpayable",
      "type": "function"
    }
  ],
  "bytecode": "0x6080604052348015600f57600080fd5b50610c3b8061001f6000396000f3fe608060405234801561001057600080fd5b50600436106100365760003560e01c8063729ff8b51461003b5780637fd615c214610057575b600080fd5b610055600480360381019061005091906105f5565b610075565b005b61005f610194565b60405161006c9190610905565b60405180910390f35b60006040518060c001604052808681526020018581526020018481526020018381526020014281526020013373ffffffffffffffffffffffffffffffffffffffff16815250908060018154018082558091505060019003906000526020600020906006020160009091909190915060008201518160000190816100f89190610b33565b50602082015181600101908161010e9190610b33565b5060408201518160020190816101249190610b33565b50606082015181600301908161013a9190610b33565b506080820151816004015560a08201518160050160006101000a81548173ffffffffffffffffffffffffffffffffffffffff021916908373ffffffffffffffffffffffffffffffffffffffff160217905550505050505050565b60606000805480602002602001604051908101604052809291908181526020016000905b8282101561049257838290600052602060002090600602016040518060c00160405290816000820180546101eb90610956565b80601f016020809104026020016040519081016040528092919081815260200182805461021790610956565b80156102645780601f1061023957610100808354040283529160200191610264565b820191906000526020600020905b81548152906001019060200180831161024757829003601f168201915b5050505050815260200160018201805461027d90610956565b80601f01602080910402602001604051908101604052809291908181526020018280546102a990610956565b80156102f65780601f106102cb576101008083540402835291602001916102f6565b820191906000526020600020905b8154815290600101906020018083116102d957829003601f168201915b5050505050815260200160028201805461030f90610956565b80601f016020809104026020016040519081016040528092919081815260200182805461033b90610956565b80156103885780601f1061035d57610100808354040283529160200191610388565b820191906000526020600020905b81548152906001019060200180831161036b57829003601f168201915b505050505081526020016003820180546103a190610956565b80601f01602080910402602001604051908101604052809291908181526020018280546103cd90610956565b801561041a5780601f106103ef5761010080835404028352916020019161041a565b820191906000526020600020905b8154815290600101906020018083116103fd57829003601f168201915b50505050508152602001600482015481526020016005820160009054906101000a900473ffffffffffffffffffffffffffffffffffffffff1673ffffffffffffffffffffffffffffffffffffffff1673ffffffffffffffffffffffffffffffffffffffff1681525050815260200190600101906101b8565b50505050905090565b6000604051905090565b600080fd5b600080fd5b600080fd5b600080fd5b6000601f19601f8301169050919050565b7f4e487b7100000000000000000000000000000000000000000000000000000000600052604160045260246000fd5b610502826104b9565b810181811067ffffffffffffffff82111715610521576105206104ca565b5b80604052505050565b600061053461049b565b905061054082826104f9565b919050565b600067ffffffffffffffff8211156105605761055f6104ca565b5b610569826104b9565b9050602081019050919050565b82818337600083830152505050565b600061059861059384610545565b61052a565b9050828152602081018484840111156105b4576105b36104b4565b5b6105bf848285610576565b509392505050565b600082601f8301126105dc576105db6104af565b5b81356105ec848260208601610585565b91505092915050565b6000806000806080858703121561060f5761060e6104a5565b5b600085013567ffffffffffffffff81111561062d5761062c6104aa565b5b610639878288016105c7565b945050602085013567ffffffffffffffff81111561065a576106596104aa565b5b610666878288016105c7565b935050604085013567ffffffffffffffff811115610687576106866104aa565b5b610693878288016105c7565b925050606085013567ffffffffffffffff8111156106b4576106b36104aa565b5b6106c0878288016105c7565b91505092959194509250565b600081519050919050565b600082825260208201905092915050565b6000819050602082019050919050565b600081519050919050565b600082825260208201905092915050565b60005b83811015610732578082015181840152602081019050610717565b60008484015250505050565b6000610749826106f8565b6107538185610703565b9350610763818560208601610714565b61076c816104b9565b840191505092915050565b6000819050919050565b61078a81610777565b82525050565b600073ffffffffffffffffffffffffffffffffffffffff82169050919050565b60006107bb82610790565b9050919050565b6107cb816107b0565b82525050565b600060c08301600083015184820360008601526107ee828261073e565b91505060208301518482036020860152610808828261073e565b91505060408301518482036040860152610822828261073e565b9150506060830151848203606086015261083c828261073e565b91505060808301516108516080860182610781565b5060a083015161086460a08601826107c2565b508091505092915050565b600061087b83836107d1565b905092915050565b6000602082019050919050565b600061089b826106cc565b6108a581856106d7565b9350836020820285016108b7856106e8565b8060005b858110156108f357848403895281516108d4858261086f565b94506108df83610883565b925060208a019950506001810190506108bb565b50829750879550505050505092915050565b6000602082019050818103600083015261091f8184610890565b905092915050565b7f4e487b7100000000000000000000000000000000000000000000000000000000600052602260045260246000fd5b6000600282049050600182168061096e57607f821691505b60208210810361098157610980610927565b5b50919050565b60008190508160005260206000209050919050565b60006020601f8301049050919050565b600082821b905092915050565b6000600883026109e97fffffffffffffffffffffffffffffffffffffffffffffffffffffffffffffffff826109ac565b6109f386836109ac565b95508019841693508086168417925050509392505050565b6000819050919050565b6000610a30610a2b610a2684610777565b610a0b565b610777565b9050919050565b6000819050919050565b610a4a83610a15565b610a5e610a5682610a37565b8484546109b9565b825550505050565b600090565b610a73610a66565b610a7e818484610a41565b505050565b5b81811015610aa257610a97600082610a6b565b600181019050610a84565b5050565b601f821115610ae757610ab881610987565b610ac18461099c565b81016020851015610ad0578190505b610ae4610adc8561099c565b830182610a83565b50505b505050565b600082821c905092915050565b6000610b0a60001984600802610aec565b1980831691505092915050565b6000610b238383610af9565b9150826002028217905092915050565b610b3c826106f8565b67ffffffffffffffff811115610b5557610b546104ca565b5b610b5f8254610956565b610b6a828285610aa6565b600060209050601f831160018114610b9d5760008415610b8b578287015190505b610b958582610b17565b865550610bfd565b601f198416610bab86610987565b60005b82811015610bd357848901518255600182019150602085019450602081019050610bae565b86831015610bf05784890151610bec601f891682610af9565b8355505b6001600288020188555050505b50505050505056fea26469706673582212208da07c2642aa2bf519174e2603f53bcf2c4d0de834aaf05b49cc07f296dede6a64736f6c634300081c0033",
  "linkReferences": {},
  "deployedLinkReferences": {}
}